{
  "_format": "hh-sol-artifact-1",
  "contractName": "AddrCounter",
  "sourceName": "contracts/AddrCounter.sol",
  "abi": [
    {
      "inputs": [],
      "stateMutability": "nonpayable",
      "type": "constructor"
    },
    {
      "inputs": [],
      "name": "addCount",
      "outputs": [],
      "stateMutability": "nonpayable",
      "type": "function"
    },
    {
      "inputs": [
        {
          "internalType": "address",
          "name": "",
          "type": "address"
        }
      ],
      "name": "addrCounterMap",
      "outputs": [
        {
          "internalType": "uint256",
          "name": "",
          "type": "uint256"
        }
      ],
      "stateMutability": "view",
      "type": "function"
    },
    {
      "inputs": [
        {
          "internalType": "address",
          "name": "account",
          "type": "address"
        }
      ],
      "name": "getCount",
      "outputs": [
        {
          "internalType": "uint256",
          "name": "",
          "type": "uint256"
        }
      ],
      "stateMutability": "view",
      "type": "function"
    }
  ],
  "bytecode": "0x608060405234801561001057600080fd5b506100596040518060400160405280601581526020017f4465706c6f79696e672041646472436f756e746572000000000000000000000081525061005e60201b6101681760201c565b6101e1565b6100fa81604051602401610072919061015f565b6040516020818303038152906040527f41304fac000000000000000000000000000000000000000000000000000000007bffffffffffffffffffffffffffffffffffffffffffffffffffffffff19166020820180517bffffffffffffffffffffffffffffffffffffffffffffffffffffffff83818316178352505050506100fd60201b60201c565b50565b60008151905060006a636f6e736f6c652e6c6f679050602083016000808483855afa5050505050565b600061013182610181565b61013b818561018c565b935061014b81856020860161019d565b610154816101d0565b840191505092915050565b600060208201905081810360008301526101798184610126565b905092915050565b600081519050919050565b600082825260208201905092915050565b60005b838110156101bb5780820151818401526020810190506101a0565b838111156101ca576000848401525b50505050565b6000601f19601f8301169050919050565b61045b806101f06000396000f3fe608060405234801561001057600080fd5b50600436106100415760003560e01c80634f0cd27b146100465780636cefce6e14610076578063d930473c14610080575b600080fd5b610060600480360381019061005b919061023f565b6100b0565b60405161006d91906102d2565b60405180910390f35b61007e6100f8565b005b61009a6004803603810190610095919061023f565b610150565b6040516100a791906102d2565b60405180910390f35b60008060008373ffffffffffffffffffffffffffffffffffffffff1673ffffffffffffffffffffffffffffffffffffffff168152602001908152602001600020549050919050565b60016000803373ffffffffffffffffffffffffffffffffffffffff1673ffffffffffffffffffffffffffffffffffffffff16815260200190815260200160002060008282546101479190610309565b92505081905550565b60006020528060005260406000206000915090505481565b6101fe8160405160240161017c91906102b0565b6040516020818303038152906040527f41304fac000000000000000000000000000000000000000000000000000000007bffffffffffffffffffffffffffffffffffffffffffffffffffffffff19166020820180517bffffffffffffffffffffffffffffffffffffffffffffffffffffffff8381831617835250505050610201565b50565b60008151905060006a636f6e736f6c652e6c6f679050602083016000808483855afa5050505050565b6000813590506102398161040e565b92915050565b60006020828403121561025157600080fd5b600061025f8482850161022a565b91505092915050565b6000610273826102ed565b61027d81856102f8565b935061028d81856020860161039b565b610296816103fd565b840191505092915050565b6102aa81610391565b82525050565b600060208201905081810360008301526102ca8184610268565b905092915050565b60006020820190506102e760008301846102a1565b92915050565b600081519050919050565b600082825260208201905092915050565b600061031482610391565b915061031f83610391565b9250827fffffffffffffffffffffffffffffffffffffffffffffffffffffffffffffffff03821115610354576103536103ce565b5b828201905092915050565b600061036a82610371565b9050919050565b600073ffffffffffffffffffffffffffffffffffffffff82169050919050565b6000819050919050565b60005b838110156103b957808201518184015260208101905061039e565b838111156103c8576000848401525b50505050565b7f4e487b7100000000000000000000000000000000000000000000000000000000600052601160045260246000fd5b6000601f19601f8301169050919050565b6104178161035f565b811461042257600080fd5b5056fea2646970667358221220492bc3cb2cf9bafe39a2854dc61c9d0814728ff634cfbdf73010828adcbff02264736f6c63430008040033",
  "linkReferences": {},
  "deployedLinkReferences": {}
}